{
  "_format": "hh-sol-artifact-1",
  "contractName": "SocialGuardWallet",
  "sourceName": "contracts/SocialGuardWallet.sol",
  "abi": [
    {
      "inputs": [
        {
          "internalType": "address",
          "name": "_gasSponsor",
          "type": "address"
        }
      ],
      "stateMutability": "nonpayable",
      "type": "constructor"
    },
    {
      "anonymous": false,
      "inputs": [
        {
          "indexed": true,
          "internalType": "address",
          "name": "dapp",
          "type": "address"
        }
      ],
      "name": "DappApproved",
      "type": "event"
    },
    {
      "anonymous": false,
      "inputs": [
        {
          "indexed": true,
          "internalType": "address",
          "name": "to",
          "type": "address"
        },
        {
          "indexed": false,
          "internalType": "uint256",
          "name": "value",
          "type": "uint256"
        }
      ],
      "name": "GaslessTransactionExecuted",
      "type": "event"
    },
    {
      "anonymous": false,
      "inputs": [
        {
          "indexed": true,
          "internalType": "address",
          "name": "previousOwner",
          "type": "address"
        },
        {
          "indexed": true,
          "internalType": "address",
          "name": "newOwner",
          "type": "address"
        }
      ],
      "name": "OwnershipTransferred",
      "type": "event"
    },
    {
      "anonymous": false,
      "inputs": [
        {
          "indexed": true,
          "internalType": "address",
          "name": "approver",
          "type": "address"
        },
        {
          "indexed": true,
          "internalType": "address",
          "name": "newOwner",
          "type": "address"
        }
      ],
      "name": "RecoveryApproved",
      "type": "event"
    },
    {
      "anonymous": false,
      "inputs": [
        {
          "indexed": true,
          "internalType": "address",
          "name": "oldOwner",
          "type": "address"
        },
        {
          "indexed": true,
          "internalType": "address",
          "name": "newOwner",
          "type": "address"
        }
      ],
      "name": "RecoveryRequested",
      "type": "event"
    },
    {
      "inputs": [],
      "name": "REQUIRED_APPROVALS",
      "outputs": [
        {
          "internalType": "uint256",
          "name": "",
          "type": "uint256"
        }
      ],
      "stateMutability": "view",
      "type": "function"
    },
    {
      "inputs": [
        {
          "internalType": "address",
          "name": "",
          "type": "address"
        }
      ],
      "name": "approvedDapps",
      "outputs": [
        {
          "internalType": "bool",
          "name": "",
          "type": "bool"
        }
      ],
      "stateMutability": "view",
      "type": "function"
    },
    {
      "inputs": [],
      "name": "gasSponsor",
      "outputs": [
        {
          "internalType": "address",
          "name": "",
          "type": "address"
        }
      ],
      "stateMutability": "view",
      "type": "function"
    },
    {
      "inputs": [],
      "name": "owner",
      "outputs": [
        {
          "internalType": "address",
          "name": "",
          "type": "address"
        }
      ],
      "stateMutability": "view",
      "type": "function"
    },
    {
      "inputs": [],
      "name": "renounceOwnership",
      "outputs": [],
      "stateMutability": "nonpayable",
      "type": "function"
    },
    {
      "inputs": [
        {
          "internalType": "address",
          "name": "newOwner",
          "type": "address"
        }
      ],
      "name": "transferOwnership",
      "outputs": [],
      "stateMutability": "nonpayable",
      "type": "function"
    }
  ],
  "bytecode": "0x60806040523480156200001157600080fd5b5060405162000b5338038062000b538339818101604052810190620000379190620003af565b620000576200004b6200012960201b60201c565b6200013160201b60201c565b60018081905550600073ffffffffffffffffffffffffffffffffffffffff168173ffffffffffffffffffffffffffffffffffffffff1603620000d0576040517f08c379a0000000000000000000000000000000000000000000000000000000008152600401620000c79062000442565b60405180910390fd5b80600560006101000a81548173ffffffffffffffffffffffffffffffffffffffff021916908373ffffffffffffffffffffffffffffffffffffffff1602179055506200012233620001f560201b60201c565b506200056e565b600033905090565b60008060009054906101000a900473ffffffffffffffffffffffffffffffffffffffff169050816000806101000a81548173ffffffffffffffffffffffffffffffffffffffff021916908373ffffffffffffffffffffffffffffffffffffffff1602179055508173ffffffffffffffffffffffffffffffffffffffff168173ffffffffffffffffffffffffffffffffffffffff167f8be0079c531659141344cd1fd0a4f28419497f9722a3daafe3b4186f6b6457e060405160405180910390a35050565b620002056200028b60201b60201c565b600073ffffffffffffffffffffffffffffffffffffffff168173ffffffffffffffffffffffffffffffffffffffff160362000277576040517f08c379a00000000000000000000000000000000000000000000000000000000081526004016200026e90620004da565b60405180910390fd5b62000288816200013160201b60201c565b50565b6200029b6200012960201b60201c565b73ffffffffffffffffffffffffffffffffffffffff16620002c16200031c60201b60201c565b73ffffffffffffffffffffffffffffffffffffffff16146200031a576040517f08c379a000000000000000000000000000000000000000000000000000000000815260040162000311906200054c565b60405180910390fd5b565b60008060009054906101000a900473ffffffffffffffffffffffffffffffffffffffff16905090565b600080fd5b600073ffffffffffffffffffffffffffffffffffffffff82169050919050565b600062000377826200034a565b9050919050565b62000389816200036a565b81146200039557600080fd5b50565b600081519050620003a9816200037e565b92915050565b600060208284031215620003c857620003c762000345565b5b6000620003d88482850162000398565b91505092915050565b600082825260208201905092915050565b7f496e76616c6964206761732073706f6e736f7200000000000000000000000000600082015250565b60006200042a601383620003e1565b91506200043782620003f2565b602082019050919050565b600060208201905081810360008301526200045d816200041b565b9050919050565b7f4f776e61626c653a206e6577206f776e657220697320746865207a65726f206160008201527f6464726573730000000000000000000000000000000000000000000000000000602082015250565b6000620004c2602683620003e1565b9150620004cf8262000464565b604082019050919050565b60006020820190508181036000830152620004f581620004b3565b9050919050565b7f4f776e61626c653a2063616c6c6572206973206e6f7420746865206f776e6572600082015250565b600062000534602083620003e1565b91506200054182620004fc565b602082019050919050565b60006020820190508181036000830152620005678162000525565b9050919050565b6105d5806200057e6000396000f3fe608060405234801561001057600080fd5b50600436106100625760003560e01c8063599c5533146100675780636791360d146100855780636edfcd23146100b5578063715018a6146100d35780638da5cb5b146100dd578063f2fde38b146100fb575b600080fd5b61006f610117565b60405161007c9190610385565b60405180910390f35b61009f600480360381019061009a9190610403565b61011c565b6040516100ac919061044b565b60405180910390f35b6100bd61013c565b6040516100ca9190610475565b60405180910390f35b6100db610162565b005b6100e5610176565b6040516100f29190610475565b60405180910390f35b61011560048036038101906101109190610403565b61019f565b005b600281565b60066020528060005260406000206000915054906101000a900460ff1681565b600560009054906101000a900473ffffffffffffffffffffffffffffffffffffffff1681565b61016a610222565b61017460006102a0565b565b60008060009054906101000a900473ffffffffffffffffffffffffffffffffffffffff16905090565b6101a7610222565b600073ffffffffffffffffffffffffffffffffffffffff168173ffffffffffffffffffffffffffffffffffffffff1603610216576040517f08c379a000000000000000000000000000000000000000000000000000000000815260040161020d90610513565b60405180910390fd5b61021f816102a0565b50565b61022a610364565b73ffffffffffffffffffffffffffffffffffffffff16610248610176565b73ffffffffffffffffffffffffffffffffffffffff161461029e576040517f08c379a00000000000000000000000000000000000000000000000000000000081526004016102959061057f565b60405180910390fd5b565b60008060009054906101000a900473ffffffffffffffffffffffffffffffffffffffff169050816000806101000a81548173ffffffffffffffffffffffffffffffffffffffff021916908373ffffffffffffffffffffffffffffffffffffffff1602179055508173ffffffffffffffffffffffffffffffffffffffff168173ffffffffffffffffffffffffffffffffffffffff167f8be0079c531659141344cd1fd0a4f28419497f9722a3daafe3b4186f6b6457e060405160405180910390a35050565b600033905090565b6000819050919050565b61037f8161036c565b82525050565b600060208201905061039a6000830184610376565b92915050565b600080fd5b600073ffffffffffffffffffffffffffffffffffffffff82169050919050565b60006103d0826103a5565b9050919050565b6103e0816103c5565b81146103eb57600080fd5b50565b6000813590506103fd816103d7565b92915050565b600060208284031215610419576104186103a0565b5b6000610427848285016103ee565b91505092915050565b60008115159050919050565b61044581610430565b82525050565b6000602082019050610460600083018461043c565b92915050565b61046f816103c5565b82525050565b600060208201905061048a6000830184610466565b92915050565b600082825260208201905092915050565b7f4f776e61626c653a206e6577206f776e657220697320746865207a65726f206160008201527f6464726573730000000000000000000000000000000000000000000000000000602082015250565b60006104fd602683610490565b9150610508826104a1565b604082019050919050565b6000602082019050818103600083015261052c816104f0565b9050919050565b7f4f776e61626c653a2063616c6c6572206973206e6f7420746865206f776e6572600082015250565b6000610569602083610490565b915061057482610533565b602082019050919050565b600060208201905081810360008301526105988161055c565b905091905056fea26469706673582212205179deda392dc1c1d7f7b0ea0281dc64cc6f53f91b13310d339a5754ef8bde6564736f6c63430008140033",
  "linkReferences": {},
  "deployedLinkReferences": {}
}